{
  "_format": "hh-sol-artifact-1",
  "contractName": "FuelSettlement",
  "sourceName": "contracts/FuelSettlement.sol",
  "abi": [
    {
      "inputs": [],
      "stateMutability": "nonpayable",
      "type": "constructor"
    },
    {
      "anonymous": false,
      "inputs": [
        {
          "indexed": true,
          "internalType": "uint256",
          "name": "orderId",
          "type": "uint256"
        },
        {
          "indexed": false,
          "internalType": "uint256",
          "name": "timestamp",
          "type": "uint256"
        }
      ],
      "name": "DeliveryConfirmed",
      "type": "event"
    },
    {
      "anonymous": false,
      "inputs": [
        {
          "indexed": true,
          "internalType": "uint256",
          "name": "orderId",
          "type": "uint256"
        },
        {
          "indexed": true,
          "internalType": "address",
          "name": "supplier",
          "type": "address"
        },
        {
          "indexed": false,
          "internalType": "uint256",
          "name": "totalAmount",
          "type": "uint256"
        }
      ],
      "name": "OrderCreated",
      "type": "event"
    },
    {
      "anonymous": false,
      "inputs": [
        {
          "indexed": true,
          "internalType": "uint256",
          "name": "orderId",
          "type": "uint256"
        },
        {
          "indexed": false,
          "internalType": "uint256",
          "name": "timestamp",
          "type": "uint256"
        }
      ],
      "name": "OrderDeclined",
      "type": "event"
    },
    {
      "anonymous": false,
      "inputs": [
        {
          "indexed": true,
          "internalType": "uint256",
          "name": "orderId",
          "type": "uint256"
        },
        {
          "indexed": false,
          "internalType": "address",
          "name": "recipient",
          "type": "address"
        },
        {
          "indexed": false,
          "internalType": "uint256",
          "name": "amount",
          "type": "uint256"
        }
      ],
      "name": "PaymentSettled",
      "type": "event"
    },
    {
      "inputs": [],
      "name": "airline",
      "outputs": [
        {
          "internalType": "address payable",
          "name": "",
          "type": "address"
        }
      ],
      "stateMutability": "view",
      "type": "function"
    },
    {
      "inputs": [
        {
          "internalType": "uint256",
          "name": "_orderId",
          "type": "uint256"
        }
      ],
      "name": "cancelOrder",
      "outputs": [],
      "stateMutability": "nonpayable",
      "type": "function"
    },
    {
      "inputs": [
        {
          "internalType": "uint256",
          "name": "_orderId",
          "type": "uint256"
        }
      ],
      "name": "confirmDelivery",
      "outputs": [],
      "stateMutability": "nonpayable",
      "type": "function"
    },
    {
      "inputs": [
        {
          "internalType": "address payable",
          "name": "_supplier",
          "type": "address"
        },
        {
          "internalType": "uint256",
          "name": "_quantityLitres",
          "type": "uint256"
        },
        {
          "internalType": "uint256",
          "name": "_pricePerLitre",
          "type": "uint256"
        }
      ],
      "name": "createFuelOrder",
      "outputs": [],
      "stateMutability": "payable",
      "type": "function"
    },
    {
      "inputs": [
        {
          "internalType": "uint256",
          "name": "_orderId",
          "type": "uint256"
        }
      ],
      "name": "declineOrder",
      "outputs": [],
      "stateMutability": "nonpayable",
      "type": "function"
    },
    {
      "inputs": [],
      "name": "newOrderId",
      "outputs": [
        {
          "internalType": "uint256",
          "name": "",
          "type": "uint256"
        }
      ],
      "stateMutability": "view",
      "type": "function"
    },
    {
      "inputs": [
        {
          "internalType": "uint256",
          "name": "",
          "type": "uint256"
        }
      ],
      "name": "orders",
      "outputs": [
        {
          "internalType": "uint256",
          "name": "orderId",
          "type": "uint256"
        },
        {
          "internalType": "address payable",
          "name": "supplier",
          "type": "address"
        },
        {
          "internalType": "uint256",
          "name": "quantityLitres",
          "type": "uint256"
        },
        {
          "internalType": "uint256",
          "name": "pricePerLitre",
          "type": "uint256"
        },
        {
          "internalType": "uint256",
          "name": "totalAmount",
          "type": "uint256"
        },
        {
          "internalType": "enum FuelSettlement.OrderStatus",
          "name": "status",
          "type": "uint8"
        },
        {
          "internalType": "bool",
          "name": "deliveryConfirmed",
          "type": "bool"
        }
      ],
      "stateMutability": "view",
      "type": "function"
    }
  ],
  "bytecode": "0x608060405234801561001057600080fd5b50336000806101000a81548173ffffffffffffffffffffffffffffffffffffffff021916908373ffffffffffffffffffffffffffffffffffffffff160217905550611585806100606000396000f3fe6080604052600436106100705760003560e01c8063a85c38ef1161004e578063a85c38ef146100e5578063b6e5e28114610128578063ccbdb85c14610153578063fd84cb971461017c57610070565b806339b6ce5c14610075578063514fcac71461009157806365d07ddb146100ba575b600080fd5b61008f600480360381019061008a9190610dd7565b6101a5565b005b34801561009d57600080fd5b506100b860048036038101906100b39190610e2a565b61042c565b005b3480156100c657600080fd5b506100cf61064c565b6040516100dc9190610e66565b60405180910390f35b3480156100f157600080fd5b5061010c60048036038101906101079190610e2a565b610652565b60405161011f9796959493929190610f22565b60405180910390f35b34801561013457600080fd5b5061013d6106ce565b60405161014a9190610f91565b60405180910390f35b34801561015f57600080fd5b5061017a60048036038101906101759190610e2a565b6106f2565b005b34801561018857600080fd5b506101a3600480360381019061019e9190610e2a565b610962565b005b60008054906101000a900473ffffffffffffffffffffffffffffffffffffffff1673ffffffffffffffffffffffffffffffffffffffff163373ffffffffffffffffffffffffffffffffffffffff1614610233576040517f08c379a000000000000000000000000000000000000000000000000000000000815260040161022a90611009565b60405180910390fd5b600081836102419190611058565b9050803414610285576040517f08c379a000000000000000000000000000000000000000000000000000000000815260040161027c90611124565b60405180910390fd5b6040518060e0016040528060015481526020018573ffffffffffffffffffffffffffffffffffffffff168152602001848152602001838152602001348152602001600060048111156102da576102d9610e90565b5b8152602001600015158152506002600060015481526020019081526020016000206000820151816000015560208201518160010160006101000a81548173ffffffffffffffffffffffffffffffffffffffff021916908373ffffffffffffffffffffffffffffffffffffffff16021790555060408201518160020155606082015181600301556080820151816004015560a08201518160050160006101000a81548160ff0219169083600481111561039557610394610e90565b5b021790555060c08201518160050160016101000a81548160ff0219169083151502179055509050508373ffffffffffffffffffffffffffffffffffffffff166001547f28eb86fd03c9bd96a8a83e4a46ab2ad257b70cea893d98ad6d482e96aa25fad0346040516104069190610e66565b60405180910390a36001600081548092919061042190611144565b919050555050505050565b60008054906101000a900473ffffffffffffffffffffffffffffffffffffffff1673ffffffffffffffffffffffffffffffffffffffff163373ffffffffffffffffffffffffffffffffffffffff16146104ba576040517f08c379a00000000000000000000000000000000000000000000000000000000081526004016104b190611009565b60405180910390fd5b6000600260008381526020019081526020016000209050600060048111156104e5576104e4610e90565b5b8160050160009054906101000a900460ff16600481111561050957610508610e90565b5b14610549576040517f08c379a0000000000000000000000000000000000000000000000000000000008152600401610540906111d9565b60405180910390fd5b60038160050160006101000a81548160ff0219169083600481111561057157610570610e90565b5b021790555060008060009054906101000a900473ffffffffffffffffffffffffffffffffffffffff1673ffffffffffffffffffffffffffffffffffffffff1682600401546040516105c19061122a565b60006040518083038185875af1925050503d80600081146105fe576040519150601f19603f3d011682016040523d82523d6000602084013e610603565b606091505b5050905080610647576040517f08c379a000000000000000000000000000000000000000000000000000000000815260040161063e9061128b565b60405180910390fd5b505050565b60015481565b60026020528060005260406000206000915090508060000154908060010160009054906101000a900473ffffffffffffffffffffffffffffffffffffffff16908060020154908060030154908060040154908060050160009054906101000a900460ff16908060050160019054906101000a900460ff16905087565b60008054906101000a900473ffffffffffffffffffffffffffffffffffffffff1681565b806002600082815260200190815260200160002060010160009054906101000a900473ffffffffffffffffffffffffffffffffffffffff1673ffffffffffffffffffffffffffffffffffffffff163373ffffffffffffffffffffffffffffffffffffffff1614610797576040517f08c379a000000000000000000000000000000000000000000000000000000000815260040161078e906112f7565b60405180910390fd5b6000600260008481526020019081526020016000209050600060048111156107c2576107c1610e90565b5b8160050160009054906101000a900460ff1660048111156107e6576107e5610e90565b5b14610826576040517f08c379a000000000000000000000000000000000000000000000000000000000815260040161081d90611363565b60405180910390fd5b60048160050160006101000a81548160ff0219169083600481111561084e5761084d610e90565b5b021790555060008060009054906101000a900473ffffffffffffffffffffffffffffffffffffffff1673ffffffffffffffffffffffffffffffffffffffff16826004015460405161089e9061122a565b60006040518083038185875af1925050503d80600081146108db576040519150601f19603f3d011682016040523d82523d6000602084013e6108e0565b606091505b5050905080610924576040517f08c379a000000000000000000000000000000000000000000000000000000000815260040161091b9061128b565b60405180910390fd5b837f64ca948bf9039de7fcaba0bab4143d413b5ffa1edf0c4a1e44867c96a4c87c02426040516109549190610e66565b60405180910390a250505050565b806002600082815260200190815260200160002060010160009054906101000a900473ffffffffffffffffffffffffffffffffffffffff1673ffffffffffffffffffffffffffffffffffffffff163373ffffffffffffffffffffffffffffffffffffffff1614610a07576040517f08c379a00000000000000000000000000000000000000000000000000000000081526004016109fe906112f7565b60405180910390fd5b600060026000848152602001908152602001600020905060006004811115610a3257610a31610e90565b5b8160050160009054906101000a900460ff166004811115610a5657610a55610e90565b5b14610a96576040517f08c379a0000000000000000000000000000000000000000000000000000000008152600401610a8d90611363565b60405180910390fd5b8060050160019054906101000a900460ff1615610ae8576040517f08c379a0000000000000000000000000000000000000000000000000000000008152600401610adf906113cf565b60405180910390fd5b60018160050160016101000a81548160ff02191690831515021790555060018160050160006101000a81548160ff02191690836004811115610b2d57610b2c610e90565b5b0217905550827fbc6a6bc916445fee9e1b8ff89b520458ba8967dd217cc4aa6515f5c430822fe742604051610b629190610e66565b60405180910390a2610b7383610b78565b505050565b60006002600083815260200190815260200160002090508060040154471015610bd6576040517f08c379a0000000000000000000000000000000000000000000000000000000008152600401610bcd9061143b565b60405180910390fd5b60008160010160009054906101000a900473ffffffffffffffffffffffffffffffffffffffff1673ffffffffffffffffffffffffffffffffffffffff168260040154604051610c249061122a565b60006040518083038185875af1925050503d8060008114610c61576040519150601f19603f3d011682016040523d82523d6000602084013e610c66565b606091505b5050905080610caa576040517f08c379a0000000000000000000000000000000000000000000000000000000008152600401610ca1906114a7565b60405180910390fd5b60028260050160006101000a81548160ff02191690836004811115610cd257610cd1610e90565b5b0217905550827ffc8b977f1c80a8e9ce98d4ee92ece16b551343d056ff17b6ab738516c39fc4408360010160009054906101000a900473ffffffffffffffffffffffffffffffffffffffff168460040154604051610d31929190611526565b60405180910390a2505050565b600080fd5b600073ffffffffffffffffffffffffffffffffffffffff82169050919050565b6000610d6e82610d43565b9050919050565b610d7e81610d63565b8114610d8957600080fd5b50565b600081359050610d9b81610d75565b92915050565b6000819050919050565b610db481610da1565b8114610dbf57600080fd5b50565b600081359050610dd181610dab565b92915050565b600080600060608486031215610df057610def610d3e565b5b6000610dfe86828701610d8c565b9350506020610e0f86828701610dc2565b9250506040610e2086828701610dc2565b9150509250925092565b600060208284031215610e4057610e3f610d3e565b5b6000610e4e84828501610dc2565b91505092915050565b610e6081610da1565b82525050565b6000602082019050610e7b6000830184610e57565b92915050565b610e8a81610d63565b82525050565b7f4e487b7100000000000000000000000000000000000000000000000000000000600052602160045260246000fd5b60058110610ed057610ecf610e90565b5b50565b6000819050610ee182610ebf565b919050565b6000610ef182610ed3565b9050919050565b610f0181610ee6565b82525050565b60008115159050919050565b610f1c81610f07565b82525050565b600060e082019050610f37600083018a610e57565b610f446020830189610e81565b610f516040830188610e57565b610f5e6060830187610e57565b610f6b6080830186610e57565b610f7860a0830185610ef8565b610f8560c0830184610f13565b98975050505050505050565b6000602082019050610fa66000830184610e81565b92915050565b600082825260208201905092915050565b7f4e6f7420746865206169726c696e650000000000000000000000000000000000600082015250565b6000610ff3600f83610fac565b9150610ffe82610fbd565b602082019050919050565b6000602082019050818103600083015261102281610fe6565b9050919050565b7f4e487b7100000000000000000000000000000000000000000000000000000000600052601160045260246000fd5b600061106382610da1565b915061106e83610da1565b9250817fffffffffffffffffffffffffffffffffffffffffffffffffffffffffffffffff04831182151516156110a7576110a6611029565b5b828202905092915050565b7f4465706f736974206d757374206d617463682063616c63756c6174656420636f60008201527f73742065786163746c7900000000000000000000000000000000000000000000602082015250565b600061110e602a83610fac565b9150611119826110b2565b604082019050919050565b6000602082019050818103600083015261113d81611101565b9050919050565b600061114f82610da1565b91507fffffffffffffffffffffffffffffffffffffffffffffffffffffffffffffffff82141561118257611181611029565b5b600182019050919050565b7f43616e6e6f742063616e63656c2070726f636573736564206f72646572000000600082015250565b60006111c3601d83610fac565b91506111ce8261118d565b602082019050919050565b600060208201905081810360008301526111f2816111b6565b9050919050565b600081905092915050565b50565b60006112146000836111f9565b915061121f82611204565b600082019050919050565b600061123582611207565b9150819050919050565b7f526566756e64206661696c656400000000000000000000000000000000000000600082015250565b6000611275600d83610fac565b91506112808261123f565b602082019050919050565b600060208201905081810360008301526112a481611268565b9050919050565b7f4e6f74207468652064657369676e6174656420737570706c6965720000000000600082015250565b60006112e1601b83610fac565b91506112ec826112ab565b602082019050919050565b60006020820190508181036000830152611310816112d4565b9050919050565b7f4f72646572206e6f7420696e2061637469766520737461746500000000000000600082015250565b600061134d601983610fac565b915061135882611317565b602082019050919050565b6000602082019050818103600083015261137c81611340565b9050919050565b7f44656c697665727920616c726561647920636f6e6669726d6564000000000000600082015250565b60006113b9601a83610fac565b91506113c482611383565b602082019050919050565b600060208201905081810360008301526113e8816113ac565b9050919050565b7f496e73756666696369656e7420636f6e74726163742062616c616e6365000000600082015250565b6000611425601d83610fac565b9150611430826113ef565b602082019050919050565b6000602082019050818103600083015261145481611418565b9050919050565b7f4661696c656420746f2073656e642043414d20746f6b656e7300000000000000600082015250565b6000611491601983610fac565b915061149c8261145b565b602082019050919050565b600060208201905081810360008301526114c081611484565b9050919050565b6000819050919050565b60006114ec6114e76114e284610d43565b6114c7565b610d43565b9050919050565b60006114fe826114d1565b9050919050565b6000611510826114f3565b9050919050565b61152081611505565b82525050565b600060408201905061153b6000830185611517565b6115486020830184610e57565b939250505056fea2646970667358221220c7be15a3a2c6ee3ae55205828c1af70f3896f54fe2d7b8a96532b471531c275c64736f6c63430008090033",
  "linkReferences": {},
  "deployedLinkReferences": {}
}